{
  "_format": "hh-sol-artifact-1",
  "contractName": "certAdd",
  "sourceName": "contracts/cert.sol",
  "abi": [
    {
      "inputs": [],
      "stateMutability": "payable",
      "type": "constructor"
    },
    {
      "anonymous": false,
      "inputs": [
        {
          "indexed": false,
          "internalType": "string",
          "name": "name",
          "type": "string"
        },
        {
          "indexed": false,
          "internalType": "string",
          "name": "studentid",
          "type": "string"
        },
        {
          "indexed": false,
          "internalType": "string",
          "name": "email",
          "type": "string"
        },
        {
          "indexed": false,
          "internalType": "string",
          "name": "course",
          "type": "string"
        },
        {
          "indexed": false,
          "internalType": "string",
          "name": "date",
          "type": "string"
        },
        {
          "indexed": false,
          "internalType": "string",
          "name": "college",
          "type": "string"
        },
        {
          "indexed": false,
          "internalType": "string",
          "name": "term",
          "type": "string"
        }
      ],
      "name": "certadded",
      "type": "event"
    },
    {
      "inputs": [
        {
          "internalType": "string",
          "name": "name",
          "type": "string"
        },
        {
          "internalType": "string",
          "name": "studentid",
          "type": "string"
        },
        {
          "internalType": "string",
          "name": "email",
          "type": "string"
        },
        {
          "internalType": "string",
          "name": "course",
          "type": "string"
        },
        {
          "internalType": "string",
          "name": "date",
          "type": "string"
        },
        {
          "internalType": "string",
          "name": "college",
          "type": "string"
        },
        {
          "internalType": "string",
          "name": "term",
          "type": "string"
        }
      ],
      "name": "addCertificate",
      "outputs": [],
      "stateMutability": "nonpayable",
      "type": "function"
    },
    {
      "inputs": [
        {
          "internalType": "address",
          "name": "wallet",
          "type": "address"
        },
        {
          "internalType": "string",
          "name": "name",
          "type": "string"
        }
      ],
      "name": "addManager",
      "outputs": [],
      "stateMutability": "nonpayable",
      "type": "function"
    },
    {
      "inputs": [],
      "name": "certCount",
      "outputs": [
        {
          "internalType": "uint256",
          "name": "",
          "type": "uint256"
        }
      ],
      "stateMutability": "view",
      "type": "function"
    },
    {
      "inputs": [
        {
          "internalType": "address",
          "name": "wallet",
          "type": "address"
        }
      ],
      "name": "checkManager",
      "outputs": [
        {
          "internalType": "bool",
          "name": "",
          "type": "bool"
        }
      ],
      "stateMutability": "view",
      "type": "function"
    },
    {
      "inputs": [
        {
          "internalType": "address",
          "name": "wallet",
          "type": "address"
        }
      ],
      "name": "removeManager",
      "outputs": [],
      "stateMutability": "nonpayable",
      "type": "function"
    }
  ],
  "bytecode": "0x60806040526000805533600260006101000a81548173ffffffffffffffffffffffffffffffffffffffff021916908373ffffffffffffffffffffffffffffffffffffffff160217905550610ffa806100586000396000f3fe608060405234801561001057600080fd5b50600436106100575760003560e01c8063229c76eb1461005c57806326673df114610078578063ac18de4314610094578063d4e207a2146100b0578063ec26019d146100ce575b600080fd5b610076600480360381019061007191906107d3565b6100fe565b005b610092600480360381019061008d919061082f565b6101b4565b005b6100ae60048036038101906100a99190610995565b61041d565b005b6100b8610567565b6040516100c591906109db565b60405180910390f35b6100e860048036038101906100e39190610995565b61056d565b6040516100f59190610a11565b60405180910390f35b3373ffffffffffffffffffffffffffffffffffffffff16600260009054906101000a900473ffffffffffffffffffffffffffffffffffffffff1673ffffffffffffffffffffffffffffffffffffffff161461015857600080fd5b6001600360008473ffffffffffffffffffffffffffffffffffffffff1673ffffffffffffffffffffffffffffffffffffffff16815260200190815260200160002060006101000a81548160ff0219169083151502179055505050565b3373ffffffffffffffffffffffffffffffffffffffff16600260009054906101000a900473ffffffffffffffffffffffffffffffffffffffff1673ffffffffffffffffffffffffffffffffffffffff1614806102595750600360003373ffffffffffffffffffffffffffffffffffffffff1673ffffffffffffffffffffffffffffffffffffffff16815260200190815260200160002060009054906101000a900460ff165b610298576040517f08c379a000000000000000000000000000000000000000000000000000000000815260040161028f90610aaf565b60405180910390fd5b6000808154809291906102aa90610afe565b9190505550604051806101000160405280600054815260200188815260200187815260200186815260200185815260200184815260200183815260200182815250600160003373ffffffffffffffffffffffffffffffffffffffff1673ffffffffffffffffffffffffffffffffffffffff1681526020019081526020016000206000820151816000015560208201518160010190816103499190610d5d565b50604082015181600201908161035f9190610d5d565b5060608201518160030190816103759190610d5d565b50608082015181600401908161038b9190610d5d565b5060a08201518160050190816103a19190610d5d565b5060c08201518160060190816103b79190610d5d565b5060e08201518160070190816103cd9190610d5d565b509050507fe698edcdb1bc15d325349bd9beade52bd968e7c6560f9697bee8ef603e6276468787878787878760405161040c9796959493929190610e92565b60405180910390a150505050505050565b3373ffffffffffffffffffffffffffffffffffffffff16600260009054906101000a900473ffffffffffffffffffffffffffffffffffffffff1673ffffffffffffffffffffffffffffffffffffffff161461047757600080fd5b3373ffffffffffffffffffffffffffffffffffffffff16600260009054906101000a900473ffffffffffffffffffffffffffffffffffffffff1673ffffffffffffffffffffffffffffffffffffffff1603610529576000600360008373ffffffffffffffffffffffffffffffffffffffff1673ffffffffffffffffffffffffffffffffffffffff16815260200190815260200160002060006101000a81548160ff021916908315150217905550610564565b6040517f08c379a000000000000000000000000000000000000000000000000000000000815260040161055b90610fa4565b60405180910390fd5b50565b60005481565b60008173ffffffffffffffffffffffffffffffffffffffff16600260009054906101000a900473ffffffffffffffffffffffffffffffffffffffff1673ffffffffffffffffffffffffffffffffffffffff1614806106145750600360008373ffffffffffffffffffffffffffffffffffffffff1673ffffffffffffffffffffffffffffffffffffffff16815260200190815260200160002060009054906101000a900460ff165b9050919050565b6000604051905090565b600080fd5b600080fd5b600073ffffffffffffffffffffffffffffffffffffffff82169050919050565b600061065a8261062f565b9050919050565b61066a8161064f565b811461067557600080fd5b50565b60008135905061068781610661565b92915050565b600080fd5b600080fd5b6000601f19601f8301169050919050565b7f4e487b7100000000000000000000000000000000000000000000000000000000600052604160045260246000fd5b6106e082610697565b810181811067ffffffffffffffff821117156106ff576106fe6106a8565b5b80604052505050565b600061071261061b565b905061071e82826106d7565b919050565b600067ffffffffffffffff82111561073e5761073d6106a8565b5b61074782610697565b9050602081019050919050565b82818337600083830152505050565b600061077661077184610723565b610708565b90508281526020810184848401111561079257610791610692565b5b61079d848285610754565b509392505050565b600082601f8301126107ba576107b961068d565b5b81356107ca848260208601610763565b91505092915050565b600080604083850312156107ea576107e9610625565b5b60006107f885828601610678565b925050602083013567ffffffffffffffff8111156108195761081861062a565b5b610825858286016107a5565b9150509250929050565b600080600080600080600060e0888a03121561084e5761084d610625565b5b600088013567ffffffffffffffff81111561086c5761086b61062a565b5b6108788a828b016107a5565b975050602088013567ffffffffffffffff8111156108995761089861062a565b5b6108a58a828b016107a5565b965050604088013567ffffffffffffffff8111156108c6576108c561062a565b5b6108d28a828b016107a5565b955050606088013567ffffffffffffffff8111156108f3576108f261062a565b5b6108ff8a828b016107a5565b945050608088013567ffffffffffffffff8111156109205761091f61062a565b5b61092c8a828b016107a5565b93505060a088013567ffffffffffffffff81111561094d5761094c61062a565b5b6109598a828b016107a5565b92505060c088013567ffffffffffffffff81111561097a5761097961062a565b5b6109868a828b016107a5565b91505092959891949750929550565b6000602082840312156109ab576109aa610625565b5b60006109b984828501610678565b91505092915050565b6000819050919050565b6109d5816109c2565b82525050565b60006020820190506109f060008301846109cc565b92915050565b60008115159050919050565b610a0b816109f6565b82525050565b6000602082019050610a266000830184610a02565b92915050565b600082825260208201905092915050565b7f41646d696e20616e64204d616e616765722063616e20646f207468697320616360008201527f74696f6e00000000000000000000000000000000000000000000000000000000602082015250565b6000610a99602483610a2c565b9150610aa482610a3d565b604082019050919050565b60006020820190508181036000830152610ac881610a8c565b9050919050565b7f4e487b7100000000000000000000000000000000000000000000000000000000600052601160045260246000fd5b6000610b09826109c2565b91507fffffffffffffffffffffffffffffffffffffffffffffffffffffffffffffffff8203610b3b57610b3a610acf565b5b600182019050919050565b600081519050919050565b7f4e487b7100000000000000000000000000000000000000000000000000000000600052602260045260246000fd5b60006002820490506001821680610b9857607f821691505b602082108103610bab57610baa610b51565b5b50919050565b60008190508160005260206000209050919050565b60006020601f8301049050919050565b600082821b905092915050565b600060088302610c137fffffffffffffffffffffffffffffffffffffffffffffffffffffffffffffffff82610bd6565b610c1d8683610bd6565b95508019841693508086168417925050509392505050565b6000819050919050565b6000610c5a610c55610c50846109c2565b610c35565b6109c2565b9050919050565b6000819050919050565b610c7483610c3f565b610c88610c8082610c61565b848454610be3565b825550505050565b600090565b610c9d610c90565b610ca8818484610c6b565b505050565b5b81811015610ccc57610cc1600082610c95565b600181019050610cae565b5050565b601f821115610d1157610ce281610bb1565b610ceb84610bc6565b81016020851015610cfa578190505b610d0e610d0685610bc6565b830182610cad565b50505b505050565b600082821c905092915050565b6000610d3460001984600802610d16565b1980831691505092915050565b6000610d4d8383610d23565b9150826002028217905092915050565b610d6682610b46565b67ffffffffffffffff811115610d7f57610d7e6106a8565b5b610d898254610b80565b610d94828285610cd0565b600060209050601f831160018114610dc75760008415610db5578287015190505b610dbf8582610d41565b865550610e27565b601f198416610dd586610bb1565b60005b82811015610dfd57848901518255600182019150602085019450602081019050610dd8565b86831015610e1a5784890151610e16601f891682610d23565b8355505b6001600288020188555050505b505050505050565b60005b83811015610e4d578082015181840152602081019050610e32565b60008484015250505050565b6000610e6482610b46565b610e6e8185610a2c565b9350610e7e818560208601610e2f565b610e8781610697565b840191505092915050565b600060e0820190508181036000830152610eac818a610e59565b90508181036020830152610ec08189610e59565b90508181036040830152610ed48188610e59565b90508181036060830152610ee88187610e59565b90508181036080830152610efc8186610e59565b905081810360a0830152610f108185610e59565b905081810360c0830152610f248184610e59565b905098975050505050505050565b7f596f752063616e27742072656d6f76652061646d696e206163636f756e74202160008201527f2121000000000000000000000000000000000000000000000000000000000000602082015250565b6000610f8e602283610a2c565b9150610f9982610f32565b604082019050919050565b60006020820190508181036000830152610fbd81610f81565b905091905056fea2646970667358221220fac2303d994c159a5401b4567bbd783dc3b9c6c1dc3d1b72ed64e50c672c05fb64736f6c63430008110033",
  "linkReferences": {},
  "deployedLinkReferences": {}
}